{
  "contractName": "Betting",
  "abi": [
    {
      "inputs": [],
      "payable": false,
      "stateMutability": "nonpayable",
      "type": "constructor"
    },
    {
      "payable": true,
      "stateMutability": "payable",
      "type": "fallback"
    },
    {
      "constant": true,
      "inputs": [],
      "name": "owner",
      "outputs": [
        {
          "internalType": "address payable",
          "name": "",
          "type": "address"
        }
      ],
      "payable": false,
      "stateMutability": "view",
      "type": "function"
    },
    {
      "constant": true,
      "inputs": [
        {
          "internalType": "uint256",
          "name": "",
          "type": "uint256"
        }
      ],
      "name": "players",
      "outputs": [
        {
          "internalType": "address payable",
          "name": "",
          "type": "address"
        }
      ],
      "payable": false,
      "stateMutability": "view",
      "type": "function"
    },
    {
      "constant": true,
      "inputs": [],
      "name": "team1bet",
      "outputs": [
        {
          "internalType": "uint256",
          "name": "",
          "type": "uint256"
        }
      ],
      "payable": false,
      "stateMutability": "view",
      "type": "function"
    },
    {
      "constant": true,
      "inputs": [],
      "name": "team2bet",
      "outputs": [
        {
          "internalType": "uint256",
          "name": "",
          "type": "uint256"
        }
      ],
      "payable": false,
      "stateMutability": "view",
      "type": "function"
    },
    {
      "constant": true,
      "inputs": [
        {
          "internalType": "address payable",
          "name": "player",
          "type": "address"
        }
      ],
      "name": "hasbet",
      "outputs": [
        {
          "internalType": "bool",
          "name": "",
          "type": "bool"
        }
      ],
      "payable": false,
      "stateMutability": "view",
      "type": "function"
    },
    {
      "constant": false,
      "inputs": [],
      "name": "doBet",
      "outputs": [],
      "payable": true,
      "stateMutability": "payable",
      "type": "function"
    },
    {
      "constant": false,
      "inputs": [
        {
          "internalType": "address payable",
          "name": "win",
          "type": "address"
        }
      ],
      "name": "distribute",
      "outputs": [],
      "payable": true,
      "stateMutability": "payable",
      "type": "function"
    },
    {
      "constant": true,
      "inputs": [],
      "name": "AmountOne",
      "outputs": [
        {
          "internalType": "uint256",
          "name": "",
          "type": "uint256"
        }
      ],
      "payable": false,
      "stateMutability": "view",
      "type": "function"
    },
    {
      "constant": true,
      "inputs": [],
      "name": "AmountTwo",
      "outputs": [
        {
          "internalType": "uint256",
          "name": "",
          "type": "uint256"
        }
      ],
      "payable": false,
      "stateMutability": "view",
      "type": "function"
    }
  ],
  "bytecode": "0x6080604052600080556000600155600060055534801561001e57600080fd5b5033600360006101000a81548173ffffffffffffffffffffffffffffffffffffffff021916908373ffffffffffffffffffffffffffffffffffffffff16021790555061062a8061006f6000396000f3fe6080604052600436106100865760003560e01c806363453ae11161005957806363453ae11461011357806365733592146101575780638da5cb5b14610182578063f2a6c777146101d9578063f71d96cb1461024257610086565b8063116625151461008857806313fff718146100b357806320a0fdbc146100bd5780634996d51d146100e8575b005b34801561009457600080fd5b5061009d6102bd565b6040518082815260200191505060405180910390f35b6100bb6102c3565b005b3480156100c957600080fd5b506100d261033e565b6040518082815260200191505060405180910390f35b3480156100f457600080fd5b506100fd610344565b6040518082815260200191505060405180910390f35b6101556004803603602081101561012957600080fd5b81019080803573ffffffffffffffffffffffffffffffffffffffff16906020019092919050505061034d565b005b34801561016357600080fd5b5061016c6104d0565b6040518082815260200191505060405180910390f35b34801561018e57600080fd5b506101976104da565b604051808273ffffffffffffffffffffffffffffffffffffffff1673ffffffffffffffffffffffffffffffffffffffff16815260200191505060405180910390f35b3480156101e557600080fd5b50610228600480360360208110156101fc57600080fd5b81019080803573ffffffffffffffffffffffffffffffffffffffff169060200190929190505050610500565b604051808215151515815260200191505060405180910390f35b34801561024e57600080fd5b5061027b6004803603602081101561026557600080fd5b81019080803590602001909291905050506105b9565b604051808273ffffffffffffffffffffffffffffffffffffffff1673ffffffffffffffffffffffffffffffffffffffff16815260200191505060405180910390f35b60015481565b6102cc33610500565b156102d657600080fd5b60023390806001815401808255809150509060018203906000526020600020016000909192909190916101000a81548173ffffffffffffffffffffffffffffffffffffffff021916908373ffffffffffffffffffffffffffffffffffffffff16021790555050565b60005481565b60008054905090565b600260008154811061035b57fe5b9060005260206000200160009054906101000a900473ffffffffffffffffffffffffffffffffffffffff1673ffffffffffffffffffffffffffffffffffffffff168173ffffffffffffffffffffffffffffffffffffffff1614156104455760026000815481106103c757fe5b9060005260206000200160009054906101000a900473ffffffffffffffffffffffffffffffffffffffff1673ffffffffffffffffffffffffffffffffffffffff166108fc678ac7230489e800009081150290604051600060405180830381858888f1935050505015801561043f573d6000803e3d6000fd5b506104cd565b600260018154811061045357fe5b9060005260206000200160009054906101000a900473ffffffffffffffffffffffffffffffffffffffff1673ffffffffffffffffffffffffffffffffffffffff166108fc678ac7230489e800009081150290604051600060405180830381858888f193505050501580156104cb573d6000803e3d6000fd5b505b50565b6000600154905090565b600360009054906101000a900473ffffffffffffffffffffffffffffffffffffffff1681565b60006001600280549050111561051957600090506105b4565b60008090505b6002805490508110156105ae578273ffffffffffffffffffffffffffffffffffffffff166002828154811061055057fe5b9060005260206000200160009054906101000a900473ffffffffffffffffffffffffffffffffffffffff1673ffffffffffffffffffffffffffffffffffffffff1614156105a15760019150506105b4565b808060010191505061051f565b50600090505b919050565b600281815481106105c657fe5b906000526020600020016000915054906101000a900473ffffffffffffffffffffffffffffffffffffffff168156fea265627a7a723158202488074debbb7799d04886d576838f564256b19675c16cecbe93e1024b6e22e564736f6c63430005100032",
  "source": "pragma solidity ^0.5.0;\n\ncontract Betting{\n    \n    uint256 public team1bet=0;\n    uint256 public team2bet=0;\n    address payable[] public players;\n    address payable public owner;\n    uint256 winner;\n    uint256 cnt=0;\n    \n    \n    \n    function() external payable {}\n    \n    constructor() public {\n      owner = msg.sender;\n      \n    }\n    \n    \n    function hasbet(address payable player) public view returns(bool)\n    {\n        if(players.length > 1) return false;\n\n        for(uint256 i=0;i<players.length;i++)\n        {\n            if(players[i]==player) return true;\n        }\n        return false;\n    }\n    \n    function doBet() public payable{\n        \n        require(!hasbet(msg.sender));\n        \n       players.push(msg.sender);\n        \n    }\n    \n    \n    \n    function distribute(address payable win) public payable{\n        \n        if(win == players[0])\n        {\n            players[0].transfer(10*1000000000000000000);\n        }\n        else\n        {\n            players[1].transfer(10*1000000000000000000);\n        }\n    }\n      \n    function AmountOne() public view returns(uint256){\n       return team1bet;\n    }\n    function AmountTwo() public view returns(uint256){\n       return team2bet;\n    }\n\n    \n    \n}",
  "sourcePath": "/home/sidgooner/bet-chain-react/server/dvideo/src/contracts/Betting.sol",
  "compiler": {
    "name": "solc",
    "version": "0.5.16+commit.9c3226ce.Emscripten.clang"
  },
  "schemaVersion": "3.2.0",
  "updatedAt": "2021-04-04T13:48:58.259Z",
  "networkType": "ethereum",
  "devdoc": {
    "methods": {}
  },
  "userdoc": {
    "methods": {}
  }
}