{
  "contractName": "Betting",
  "abi": [
    {
      "inputs": [],
      "payable": false,
      "stateMutability": "nonpayable",
      "type": "constructor"
    },
    {
      "payable": true,
      "stateMutability": "payable",
      "type": "fallback"
    },
    {
      "constant": true,
      "inputs": [],
      "name": "owner",
      "outputs": [
        {
          "internalType": "address payable",
          "name": "",
          "type": "address"
        }
      ],
      "payable": false,
      "stateMutability": "view",
      "type": "function"
    },
    {
      "constant": true,
      "inputs": [
        {
          "internalType": "address",
          "name": "",
          "type": "address"
        }
      ],
      "name": "playerInfo",
      "outputs": [
        {
          "internalType": "uint256",
          "name": "amountBet",
          "type": "uint256"
        },
        {
          "internalType": "uint256",
          "name": "teamSelected",
          "type": "uint256"
        }
      ],
      "payable": false,
      "stateMutability": "view",
      "type": "function"
    },
    {
      "constant": true,
      "inputs": [
        {
          "internalType": "uint256",
          "name": "",
          "type": "uint256"
        }
      ],
      "name": "players",
      "outputs": [
        {
          "internalType": "address payable",
          "name": "",
          "type": "address"
        }
      ],
      "payable": false,
      "stateMutability": "view",
      "type": "function"
    },
    {
      "constant": true,
      "inputs": [],
      "name": "team1bet",
      "outputs": [
        {
          "internalType": "uint256",
          "name": "",
          "type": "uint256"
        }
      ],
      "payable": false,
      "stateMutability": "view",
      "type": "function"
    },
    {
      "constant": true,
      "inputs": [],
      "name": "team2bet",
      "outputs": [
        {
          "internalType": "uint256",
          "name": "",
          "type": "uint256"
        }
      ],
      "payable": false,
      "stateMutability": "view",
      "type": "function"
    },
    {
      "constant": true,
      "inputs": [
        {
          "internalType": "address payable",
          "name": "player",
          "type": "address"
        }
      ],
      "name": "hasbet",
      "outputs": [
        {
          "internalType": "bool",
          "name": "",
          "type": "bool"
        }
      ],
      "payable": false,
      "stateMutability": "view",
      "type": "function"
    },
    {
      "constant": false,
      "inputs": [
        {
          "internalType": "uint256",
          "name": "team",
          "type": "uint256"
        }
      ],
      "name": "doBet",
      "outputs": [],
      "payable": true,
      "stateMutability": "payable",
      "type": "function"
    },
    {
      "constant": false,
      "inputs": [
        {
          "internalType": "uint256",
          "name": "win",
          "type": "uint256"
        }
      ],
      "name": "distribute",
      "outputs": [],
      "payable": true,
      "stateMutability": "payable",
      "type": "function"
    },
    {
      "constant": true,
      "inputs": [],
      "name": "AmountOne",
      "outputs": [
        {
          "internalType": "uint256",
          "name": "",
          "type": "uint256"
        }
      ],
      "payable": false,
      "stateMutability": "view",
      "type": "function"
    },
    {
      "constant": true,
      "inputs": [],
      "name": "AmountTwo",
      "outputs": [
        {
          "internalType": "uint256",
          "name": "",
          "type": "uint256"
        }
      ],
      "payable": false,
      "stateMutability": "view",
      "type": "function"
    }
  ],
  "bytecode": "0x608060405260008055600060015534801561001957600080fd5b5033600360006101000a81548173ffffffffffffffffffffffffffffffffffffffff021916908373ffffffffffffffffffffffffffffffffffffffff1602179055506108a58061006a6000396000f3fe6080604052600436106100915760003560e01c80638da5cb5b116100595780638da5cb5b146101ab57806391c05b0b14610202578063b8a1e35514610230578063f2a6c7771461025e578063f71d96cb146102c757610091565b8063116625151461009357806320a0fdbc146100be5780634996d51d146100e95780634b114691146101145780636573359214610180575b005b34801561009f57600080fd5b506100a8610342565b6040518082815260200191505060405180910390f35b3480156100ca57600080fd5b506100d3610348565b6040518082815260200191505060405180910390f35b3480156100f557600080fd5b506100fe61034e565b6040518082815260200191505060405180910390f35b34801561012057600080fd5b506101636004803603602081101561013757600080fd5b81019080803573ffffffffffffffffffffffffffffffffffffffff169060200190929190505050610357565b604051808381526020018281526020019250505060405180910390f35b34801561018c57600080fd5b5061019561037b565b6040518082815260200191505060405180910390f35b3480156101b757600080fd5b506101c0610385565b604051808273ffffffffffffffffffffffffffffffffffffffff1673ffffffffffffffffffffffffffffffffffffffff16815260200191505060405180910390f35b61022e6004803603602081101561021857600080fd5b81019080803590602001909291905050506103ab565b005b61025c6004803603602081101561024657600080fd5b8101908080359060200190929190505050610637565b005b34801561026a57600080fd5b506102ad6004803603602081101561028157600080fd5b81019080803573ffffffffffffffffffffffffffffffffffffffff16906020019092919050505061076f565b604051808215151515815260200191505060405180910390f35b3480156102d357600080fd5b50610300600480360360208110156102ea57600080fd5b8101908080359060200190929190505050610811565b604051808273ffffffffffffffffffffffffffffffffffffffff1673ffffffffffffffffffffffffffffffffffffffff16815260200191505060405180910390f35b60015481565b60005481565b60008054905090565b60056020528060005260406000206000915090508060000154908060010154905082565b6000600154905090565b600360009054906101000a900473ffffffffffffffffffffffffffffffffffffffff1681565b60018114156103c15760016004819055506103ca565b60026004819055505b6103d261084d565b600080905060008090506000809050600080600080600090505b6002805490508110156104d9576002818154811061040657fe5b9060005260206000200160009054906101000a900473ffffffffffffffffffffffffffffffffffffffff169150600454600560008473ffffffffffffffffffffffffffffffffffffffff1673ffffffffffffffffffffffffffffffffffffffff1681526020019081526020016000206001015414156104cc57818888600a811061048c57fe5b602002019073ffffffffffffffffffffffffffffffffffffffff16908173ffffffffffffffffffffffffffffffffffffffff168152505086806001019750505b80806001019150506103ec565b50600160045414156104f457600154945060005493506104ff565b600054945060015493505b60008090505b8681101561062c57600073ffffffffffffffffffffffffffffffffffffffff168882600a811061053157fe5b602002015173ffffffffffffffffffffffffffffffffffffffff1614610565578781600a811061055d57fe5b602002015193505b600560008573ffffffffffffffffffffffffffffffffffffffff1673ffffffffffffffffffffffffffffffffffffffff1681526020019081526020016000206000015492508781600a81106105b657fe5b602002015173ffffffffffffffffffffffffffffffffffffffff166108fc612710876127108a02816105e457fe5b04612710018602816105f257fe5b049081150290604051600060405180830381858888f1935050505015801561061e573d6000803e3d6000fd5b508080600101915050610505565b505050505050505050565b6106403361076f565b1561064a57600080fd5b34600560003373ffffffffffffffffffffffffffffffffffffffff1673ffffffffffffffffffffffffffffffffffffffff1681526020019081526020016000206000018190555080600560003373ffffffffffffffffffffffffffffffffffffffff1673ffffffffffffffffffffffffffffffffffffffff1681526020019081526020016000206001018190555060023390806001815401808255809150509060018203906000526020600020016000909192909190916101000a81548173ffffffffffffffffffffffffffffffffffffffff021916908373ffffffffffffffffffffffffffffffffffffffff16021790555050600181141561075b5734600080828254019250508190555061076c565b346001600082825401925050819055505b50565b600080600090505b600280549050811015610806578273ffffffffffffffffffffffffffffffffffffffff16600282815481106107a857fe5b9060005260206000200160009054906101000a900473ffffffffffffffffffffffffffffffffffffffff1673ffffffffffffffffffffffffffffffffffffffff1614156107f957600191505061080c565b8080600101915050610777565b50600090505b919050565b6002818154811061081e57fe5b906000526020600020016000915054906101000a900473ffffffffffffffffffffffffffffffffffffffff1681565b604051806101400160405280600a9060208202803883398082019150509050509056fea265627a7a723158209b5f2557744a460bf941f4fa25b49055862f4dd1ab56e495045fce0d5e046fae64736f6c63430005100032",
  "source": "pragma solidity ^0.5.0;\n\ncontract Betting{\n    \n    uint256 public team1bet=0;\n    uint256 public team2bet=0;\n    address payable[] public players;\n    address payable public owner;\n    uint256 winner;\n    \n    struct Player {\n      uint256 amountBet;\n      uint256 teamSelected;\n    }\n    \n    mapping(address => Player) public playerInfo;\n    \n    function() external payable {}\n    \n    constructor() public {\n      owner = msg.sender;\n      \n    }\n    \n    \n    function hasbet(address payable player) public view returns(bool)\n    {\n        for(uint256 i=0;i<players.length;i++)\n        {\n            if(players[i]==player) return true;\n        }\n        return false;\n    }\n    \n    function doBet(uint256 team) public payable{\n        \n        require(!hasbet(msg.sender));\n        \n        playerInfo[msg.sender].amountBet=msg.value;\n        playerInfo[msg.sender].teamSelected=team;\n        \n        players.push(msg.sender);\n        \n        if(team==1)\n        {\n            team1bet+=msg.value;\n        }\n        \n        else\n        {\n            team2bet+=msg.value;\n        }\n        \n    }\n    \n    \n    \n    function distribute(uint256 win) public payable{\n        \n        if(win==1)\n        {\n            winner=1;\n        }\n        else\n        {\n            winner=2;\n        }\n\n        address payable[10] memory winners;\n        \n        uint256 count = 0; \n        uint256 LoserBet = 0; \n        uint256 WinnerBet = 0;\n        address add;\n        uint256 bet;\n        address payable playerAddress;\n\n      for(uint256 i = 0; i < players.length; i++){\n         playerAddress = players[i];\n\n         if(playerInfo[playerAddress].teamSelected == winner){\n            winners[count] = playerAddress;\n            count++;\n         }\n      }\n    \n        if ( winner == 1){\n         LoserBet = team2bet;\n         WinnerBet = team1bet;\n      }\n      else{\n          LoserBet = team1bet;\n          WinnerBet = team2bet;\n      }\n      \n\n      for(uint256 j = 0; j < count; j++){\n\n         if(winners[j] != address(0))\n            add = winners[j];\n            bet = playerInfo[add].amountBet;\n\n            winners[j].transfer((bet*(10000+(LoserBet*10000/WinnerBet)))/10000 );\n      }\n    }\n      \n    function AmountOne() public view returns(uint256){\n       return team1bet;\n    }\n    function AmountTwo() public view returns(uint256){\n       return team2bet;\n    }\n\n    \n    \n}",
  "sourcePath": "/home/sidgooner/bet-chain-react/server/dvideo/src/contracts/Betting.sol",
  "compiler": {
    "name": "solc",
    "version": "0.5.16+commit.9c3226ce.Emscripten.clang"
  },
  "schemaVersion": "3.2.0",
  "updatedAt": "2021-03-13T17:20:17.917Z",
  "networkType": "ethereum",
  "devdoc": {
    "methods": {}
  },
  "userdoc": {
    "methods": {}
  }
}